S00F0000537072696E74342E7372656361
S11300000C9424010C9443010C9441010C94F302CC
S11300100C9441010C942A020C9441010C9441016A
S11300200C9441010C9441010C9441010C94410144
S11300300C9441010C9441010C942B030C94410148
S11300400C9441010C9441010C9441010C94410124
S11300500C9441010C9441010C9441010C94410114
S11300600C9441010C944101000000000000005F69
S113007000000007000700147F147F14242A7F2A3D
S11300801223130864623649552250000503000008
S1130090001C2241000041221C0014083E081408E0
S11300A0083E0808005030000008080808080060EE
S11300B060000020100804023E5149453E00427F82
S11300C0400042615149462141454B311814127F89
S11300D01027454545393C4A494930017109050312
S11300E03649494936064949291E0036360000007A
S11300F0563600000814224100141414141400414C
S11301002214080201510906324979413E7E111137
S1130110117E7F494949363E414141227F41412276
S11301201C7F494949417F090909013E4149497AEE
S11301307F0808087F00417F41002040413F017F44
S1130140081422417F404040407F020C027F7F041C
S113015008107F3E4141413E7F090909063E415155
S1130160215E7F09192946464949493101017F0128
S1130170013F4040403F1F2040201F3F4038403F48
S11301806314081463070870080761514945430064
S11301907F41410002040810200041417F00040215
S11301A00102044040404040000102040020545435
S11301B054787F48444438384444442038444448BC
S11301C07F3854545418087E0901020C5252523E8E
S11301D07F0804047800447D40002040443D007FB3
S11301E01028440000417F40007C041804787C08F7
S11301F004047838444444387C141414080814144F
S1130200187C7C080404084854545420043F444097
S1130210203C4040207C1C2040201C3C4030403C82
S113022044281028440C5050503C4464544C44001E
S11302300836410000007F00000041360800100825
S1130240081008000000000011241FBECFEFD8E002
S1130250DEBFCDBF11E0A0E0B1E0EAE9F3E202C005
S113026005900D92AE34B107D9F723E0AEE4B1E0C6
S113027001C01D92AA3AB207E1F70E9436040C9419
S1130280CB110C9400001F920F9200905F000F920C
S113029011242F933F934F935F936F937F938F9387
S11302A09F93AF93BF93EF93FF93CF93DF93CDB718
S11302B0DEB780914E018F5F80934E0180914E0195
S11302C0843011F410924E0180914E01882F90E0F9
S11302D081309105A9F1823091051CF4892B49F0F4
S11302E0A4C08230910509F452C0039709F476C082
S11302F09CC065E088E20E94350D61E084E091E0F5
S11303000E94120D6FE088E20E94350D61E086E0E4
S113031091E00E94120D69E188E20E94350D61E0CE
S113032086E091E00E94120D63E288E20E94350D9E
S113033061E086E091E00E94120D0E94480D75C0B4
S113034065E088E20E94350D61E086E091E00E945C
S1130350120D6FE088E20E94350D61E084E091E0C7
S11303600E94120D69E188E20E94350D61E086E089
S113037091E00E94120D63E288E20E94350D61E073
S113038086E091E00E94120D0E94480D4EC065E087
S113039088E20E94350D61E086E091E00E94120D32
S11303A06FE088E20E94350D61E086E091E00E94F2
S11303B0120D69E188E20E94350D61E084E091E06C
S11303C00E94120D63E288E20E94350D61E086E02E
S11303D091E00E94120D0E94480D27C065E088E25A
S11303E00E94350D61E086E091E00E94120D6FE0FD
S11303F088E20E94350D61E086E091E00E94120DD2
S113040069E188E20E94350D61E086E091E00E9496
S1130410120D63E288E20E94350D61E084E091E010
S11304200E94120D0E94480D00000000DF91CF9140
S1130430FF91EF91BF91AF919F918F917F916F91B8
S11304405F914F913F912F910F9000925F000F9019
S11304501F9018951F920F9200905F000F92112425
S11304602F933F934F935F936F937F938F939F93B8
S1130470AF93BF93EF93FF93CF93DF93CDB7DEB7E3
S113048089E290E0FC01808188230CF445C08091CE
S11304904E01882F90E081309105F1F08230910572
S11304A01CF4892B39F088C08230910511F103972F
S11304B069F182C080910301813019F41092030123
S11304C07BC081E08093030177C0809100018F5F3E
S11304D080930001000070C0000080910001893009
S11304E0A0F36AC0809101018F5F80930101000035
S11304F063C00000809101018930A0F35DC0809148
S113050002018F5F80930201000056C000008091B9
S113051002018930A0F350C089E290E0FC0180819F
S1130520882F90E080719927892B09F045C080912C
S11305304E01882F90E081309105F1F082309105D1
S11305401CF4892B39F038C08230910511F10397DE
S113055069F132C080910301813019F410920301D2
S11305602BC081E08093030127C08091000181505A
S113057080930001000020C00000809100018230BF
S1130580A0F71AC0809101018150809301010000FD
S113059013C00000809101018230A0F70DC080914A
S11305A00201815080930201000005C00000809187
S11305B002018230A0F700000E94AC060000DF9127
S11305C0CF91FF91EF91BF91AF919F918F917F91C7
S11305D06F915F914F913F912F910F9000925F0027
S11305E00F901F9018951F920F9200905F000F922A
S11305F011248F939F93EF93FF93CF93DF93CDB702
S1130600DEB783E290E0FC018081882F90E0807463
S11306109927892B51F480915301909154010196AB
S1130620909354018093530109C083E290E0FC014C
S1130630808188231CF081E0809358010000DF91C1
S1130640CF91FF91EF919F918F910F9000925F0056
S11306500F901F9018951F920F9200905F000F92B9
S11306601124EF92FF920F931F932F933F934F9375
S11306705F936F937F938F939F93AF93BF93EF9306
S1130680FF93CF93DF93CDB7DEB780914F01909165
S11306905001A0915101B09152010196A11DB11DCB
S11306A080934F0190935001A0935101B093520154
S11306B020914F01309150014091510150915201CC
S11306C080915B0190915C01A0915D01B0915E010C
S11306D079018A01E81AF90A0A0B1B0BD801C70130
S11306E088389341A105B10538F120915301309127
S11306F05401C901880F991F820F931F880F991FF6
S1130700880F991F909356018093550180914F0152
S113071090915001A0915101B091520180935B01DD
S113072090935C01A0935D01B0935E01109254011B
S1130730109253010E94AC06809103018823E1F4D6
S113074080915501909156019C01A9E8B8E80E9456
S1130750B00E96958795929582958F7089279F7094
S113076089278F5F80930001809100019AE0192FFF
S1130770181B812F8093010120914F01309150016A
S1130780409151015091520180915F01909160011B
S1130790A0916101B091620179018A01E81AF90A14
S11307A00A0B1B0BD801C701843F9140A105B10579
S11307B008F443C081E08093570189E290E0FC0192
S11307C08081882F90E080749927892B19F481E027
S11307D08093590188E790E0FC01808191819C011C
S11307E040E050E088E19CE9AFE0B0E0BC01CD011D
S11307F00E94910EDA01C901885E9340A109B109F2
S11308008C329140A105B10524F481E080935A0112
S113081004C088E490E0FC01108280914F01909123
S11308205001A0915101B091520180935F019093C6
S11308306001A0936101B09362010000DF91CF9148
S1130840FF91EF91BF91AF919F918F917F916F91A4
S11308505F914F913F912F911F910F91FF90EF90D6
S11308600F9000925F000F901F901895CF93DF9325
S1130870CDB7DEB784E290E02FE3FC0120838AE267
S113088090E02AE2FC0120838BE290E02FEFFC0150
S1130890208387E290E02EE7FC01208388E290E049
S11308A02EE3FC0120838CE790E020E4FC0120830C
S11308B08AE790E027EEFC0120838BE790E0FC01BF
S11308C010828EE790E0FC01108284E490E023EA39
S11308D0FC01208385E490E023E0FC01208387E48D
S11308E090E029EFFC01208388E490E02DE4FC01F2
S11308F020838EE690E022E0FC01208389E690E0EC
S11309002AE0FC0120838DE390E023E0FC012083B6
S113091088E690E025E0FC0120838DE690E020ED60
S1130920FC0120838BE690E020ECFC01208385EC25
S113093090E0FC01108284EC90E02FEFFC01208316
S113094081EC90E028E1FC01208382EC90E026E039
S1130950FC01208378940E945F0A0E94DF0B65E00B
S113096080E00E94350D61E088E091E00E94120D64
S113097065E088E20E94350D61E084E091E00E9428
S1130980120D6FE080E00E94350D61E08DE091E092
S11309900E94120D69E180E00E94350D61E083E15F
S11309A091E00E94120D63E280E00E94350D61E047
S11309B089E191E00E94120D60E08DE20E94350D04
S11309C062E08FE191E00E94120D65E08DE20E94E9
S11309D0350D62E08FE191E00E94120D6AE08DE234
S11309E00E94350D62E08FE191E00E94120D6FE0EC
S11309F08DE20E94350D62E08FE191E00E94120DBC
S1130A0064E18DE20E94350D62E08FE191E00E9485
S1130A10120D69E18DE20E94350D62E08FE191E0F3
S1130A200E94120D6EE18DE20E94350D62E08FE1AD
S1130A3091E00E94120D63E28DE20E94350D62E0A6
S1130A408FE191E00E94120D6FE087E30E94350D63
S1130A5061E081E291E00E94120D68E287E30E9466
S1130A60350D61E085E291E00E94120D0E94AC0612
S1130A700E94480D0E94490587E591E00E94C50740
S1130A800E94AC060E94480D0E943D080E94F40793
S1130A90F1CFCF93DF93CDB7DEB762970FB6F8945B
S1130AA0DEBF0FBECDBF22E1EBE2F1E0CE01019645
S1130AB0DC0101900D922A95E1F785E290E0209106
S1130AC0630130916401220F331FAE014F5F5F4F0A
S1130AD0240F351FF90120813181FC01208380918D
S1130AE0630190916401049708F054C020914F0170
S1130AF03091500140915101509152018091650112
S1130B0090916601A0916701B0916801281B390B8F
S1130B104A0B5B0B80910001682F70E0EAEFE69FBF
S1130B20C001E79F900D1124092E000CAA0BBB0BEA
S1130B30281739074A075B0708F402C1809163014B
S1130B409091640101969093640180936301809174
S1130B500001282F30E04AEF429FC001439F900DCF
S1130B6011249C01990F440B550B809165019091C0
S1130B706601A0916701B0916801820F931FA41FC1
S1130B80B51F8093650190936601A0936701B093AC
S1130B906801D6C08091630190916401049709F0C3
S1130BA05AC020914F013091500140915101509110
S1130BB052018091650190916601A0916701B09105
S1130BC06801281B390B4A0B5B0B80910201E82F4B
S1130BD0F0E068EE73E0E69FC001E79F900DF69F9A
S1130BE0900D1124092E000CAA0BBB0B28173907F2
S1130BF04A075B0708F4A4C08091630190916401E3
S1130C000196909364018093630180910201482FBF
S1130C1050E028EE33E0429FC001439F900D529F65
S1130C20900D11249C01990F440B550B8091650183
S1130C3090916601A0916701B0916801820F931FA2
S1130C40A41FB51F8093650190936601A09367016B
S1130C50B093680175C08091630190916401099714
S1130C6008F054C020914F0130915001409151013E
S1130C70509152018091650190916601A0916701A4
S1130C80B0916801281B390B4A0B5B0B8091010161
S1130C90682F70E0EAEFE69FC001E79F900D1124F2
S1130CA0092E000CAA0BBB0B281739074A075B0750
S1130CB008F446C080916301909164010196909379
S1130CC064018093630180910101282F30E04AEF91
S1130CD0429FC001439F900D11249C01990F440B26
S1130CE0550B8091650190916601A0916701B091C7
S1130CF06801820F931FA41FB51F80936501909311
S1130D006601A0936701B09368011AC080916301E2
S1130D10909164010997A0F010926401109263010C
S1130D2080914F0190915001A0915101B0915201D5
S1130D308093650190936601A0936701B093680165
S1130D400E94F407000062960FB6F894DEBF0FBE4F
S1130D50CDBFDF91CF910895CF93DF93CDB7DEB7A9
S1130D6080910001882F90E0292F2F938F938DE39A
S1130D7091E0892F8F938DE391E08F9385E793E042
S1130D80892F8F9385E793E08F930E94E10E0F9054
S1130D900F900F900F900F900F9080910101882F6A
S1130DA090E0292F2F938F938DE391E0892F8F93D8
S1130DB08DE391E08F938FE693E0892F8F938FE6F5
S1130DC093E08F930E94E10E0F900F900F900F907D
S1130DD00F900F9080910201882F90E0292F2F937C
S1130DE08F938DE391E0892F8F938DE391E08F931F
S1130DF082E793E0892F8F9382E793E08F930E9499
S1130E00E10E0F900F900F900F900F900F90809124
S1130E10550190915601292F2F938F938DE391E0E3
S1130E20892F8F938DE391E08F9383E693E0892F4D
S1130E308F9383E693E08F930E94E10E0F900F90BF
S1130E400F900F900F900F9088E790E0FC01808145
S1130E5091819C0140E050E088E19CE9AFE0B0E082
S1130E60BC01CD010E94910EDA01C901885E934054
S1130E70A109B1092B2F2F932A2F2F93292F2F93B9
S1130E808F938DE391E0892F8F938DE391E08F937E
S1130E9088E793E0892F8F9388E793E08F930E94EC
S1130EA0E10E8DB79EB708960FB6F894DEBF0FBE5D
S1130EB0CDBF65E081E20E94350D80910301882356
S1130EC031F061E080E491E00E94120D05C061E020
S1130ED082E491E00E94120D6FE081E20E94350DE0
S1130EE061E085E793E00E94120D69E181E20E94CE
S1130EF0350D61E08FE693E00E94120D63E281E21A
S1130F000E94350D61E082E793E00E94120D60E2D9
S1130F1087E30E94350D61E084E491E00E94120DA4
S1130F2060E287E30E94350D61E083E693E00E946E
S1130F30120D65E087E30E94350D61E088E491E0DD
S1130F400E94120D65E087E30E94350D61E088E799
S1130F5093E00E94120D0E94480D9091010180912E
S1130F600201E92FE81B8E2F0E94220880910201C2
S1130F700E9422089091020180910001890F0E9431
S1130F8022080000DF91CF910895CF93DF9300D022
S1130F90CDB7DEB79A83898389819A81FC018081E8
S1130FA08823E1F088E790E0FC01808191819C0135
S1130FB040E050E088E19CE9AFE0B0E0BC01CD0145
S1130FC00E94910EDA01C901885E934090936E03EA
S1130FD080936D0389819A81FC01108200000F9037
S1130FE00F90DF91CF910895CF93DF9300D0CDB7C9
S1130FF0DEB780915301909154019A838983809143
S11310005A018823C9F080915901882321F48981E8
S11310109A81892B51F088E490E02FEFFC01208322
S1131020109259011A82198205C088E490E02DE4D7
S1131030FC01208310925A0100000F900F90DF9161
S1131040CF910895CF93DF931F92CDB7DEB78983F5
S1131050000080EC90E0FC018081882F90E0807299
S11310609927892BB1F386EC90E02981FC01208338
S113107000000F90DF91CF910895CF93DF93CDB708
S1131080DEB7AA970FB6F894DEBF0FBECDBF80912E
S11310905801882309F474C185E290E024E0FC013E
S11310A0208380E090E8ABE3B5E489839A83AB8343
S11310B0BC8320E030E04AE755E469817A818B8182
S11310C09C810E94F00DDC01CB0189A39AA3ABA300
S11310D0BCA320E030E040E85FE369A17AA18BA1E2
S11310E09CA10E946A0D88232CF481E090E09EA3C9
S11310F08DA33FC020E03FEF4FE757E469A17AA1F9
S11311008BA19CA10E94EB0D18164CF520E030E059
S113111040E251E469817A818B819C810E94F00DC7
S1131120DC01CB01BC01CD010E946F0DDC01CB01C0
S11311309EA38DA30FC080E991E098A78FA38FA1F0
S113114098A50197F1F798A78FA38DA19EA1019768
S11311509EA38DA38DA19EA1892B69F714C069A1BB
S11311607AA18BA19CA10E946F0DDC01CB019EA3EF
S11311708DA38DA19EA19AA789A789A59AA5019758
S1131180F1F79AA789A785E290E025E0FC01208386
S113119085E290E025E230E0F90120812F7DFC0119
S11311A0208380E090E8ABE3B5E48D839E83AF8336
S11311B0B88720E030E04AE755E46D817E818F8175
S11311C098850E94F00DDC01CB018F8B988FA98F3D
S11311D0BA8F20E030E040E85FE36F89788D898D35
S11311E09A8D0E946A0D88232CF481E090E09C8FF4
S11311F08B8F3FC020E03FEF4FE757E46F89788D36
S1131200898D9A8D0E94EB0D18164CF520E030E084
S113121040E251E46D817E818F8198850E94F00DBA
S1131220DC01CB01BC01CD010E946F0DDC01CB01BF
S11312309C8F8B8F0FC080E991E09E8F8D8F8D8D59
S11312409E8D0197F1F79E8F8D8F8B8D9C8D0197CD
S11312509C8F8B8F8B8D9C8D892B69F714C06F8924
S1131260788D898D9A8D0E946F0DDC01CB019C8F46
S11312708B8F8B8D9C8D98A38F8F8F8D98A10197C9
S1131280F1F798A38F8F85E290E025E230E0F90131
S113129020812062FC01208380E090E8ABE3B5E488
S11312A089879A87AB87BC8720E030E04AE755E41A
S11312B069857A858B859C850E94F00DDC01CB01C4
S11312C08D879E87AF87B88B20E030E040E85FE3EE
S11312D06D857E858F8598890E946A0D88232CF4FC
S11312E081E090E09A8B898B3FC020E03FEF4FE78D
S11312F057E46D857E858F8598890E94EB0D1816BD
S11313004CF520E030E040E251E469857A858B8534
S11313109C850E94F00DDC01CB01BC01CD010E9433
S11313206F0DDC01CB019A8B898B0FC080E991E0B2
S11313309C8B8B8B8B899C890197F1F79C8B8B8B76
S113134089899A8901979A8B898B89899A89892BAA
S113135069F714C06D857E858F8598890E946F0D0D
S1131360DC01CB019A8B898B89899A899E8B8D8B21
S11313708D899E890197F1F79E8B8D8B1092580170
S11313800000AA960FB6F894DEBF0FBECDBFDF9162
S1131390CF9108951F93CF93DF9300D0CDB7DEB7DD
S11313A089836A8388E290E028E230E0F9012081B1
S11313B02F7EFC0120838A81882351F088E290E00B
S11313C028E230E0F90120812860FC01208309C073
S11313D088E290E028E230E0F9012081277FFC01D7
S11313E0208310E03CC08981882F90E0212F30E0D9
S11313F047E050E0BA01621B730B9B0102C0959554
S113140087952A95E2F781709927892B51F088E214
S113141090E028E230E0F90120812460FC0120837F
S113142009C088E290E028E230E0F90120812B7FB6
S1131430FC01208388E290E028E230E0F901208179
S11314402260FC01208388E290E028E230E0F90188
S113145020812D7FFC012083812F11E0180F18308B
S113146010F288E290E028E230E0F9012081206166
S1131470FC01208300000F900F90DF91CF911F910A
S11314800895CF93DF931F92CDB7DEB7898360E0D1
S113149089810E94CA0900000F90DF91CF910895BD
S11314A0CF93DF931F92CDB7DEB7898361E0898143
S11314B00E94CA0900000F90DF91CF9108950F9305
S11314C01F93CF93DF93CDB7DEB76C970FB6F89425
S11314D0DEBF0FBECDBF87E290E027E230E0F90126
S11314E020812061FC01208387E290E027E230E044
S11314F0F90120812062FC01208387E290E027E249
S113150030E0F90120812860FC01208387E290E02B
S113151027E230E0F90120812460FC01208387E286
S113152090E027E230E0F90120812260FC01208371
S113153088E290E028E230E0F90120812062FC0199
S1131540208388E290E028E230E0F90120812061E4
S1131550FC01208380E090E0A0E2B1E489839A83D7
S1131560AB83BC8320E030E04AE753E469817A81AD
S11315708B819C810E94F00DDC01CB018B8B9C8BB9
S1131580AD8BBE8B20E030E040E85FE36B897C8963
S11315908D899E890E946A0D88232CF481E090E055
S11315A0988F8F8B3FC020E03FEF4FE757E46B8964
S11315B07C898D899E890E94EB0D18164CF520E0DC
S11315C030E040E251E469817A818B819C810E9400
S11315D0F00DDC01CB01BC01CD010E946F0DDC01DB
S11315E0CB01988F8F8B0FC089E190E09A8F898F00
S11315F0898D9A8D0197F1F79A8F898F8F89988DAC
S11316000197988F8F8B8F89988D892B69F714C0D8
S11316106B897C898D899E890E946F0DDC01CB01C9
S1131620988F8F8B8F89988D9C8F8B8F8B8D9C8DB2
S11316300197F1F79C8F8B8F88E290E028E230E0ED
S1131640F90120812F7DFC01208380E090E0ACE84B
S1131650B2E48D839E83AF83B88720E030E04AE70D
S113166053E46D817E818F8198850E94F00DDC01A9
S1131670CB0189879A87AB87BC8720E030E040E8BC
S11316805FE369857A858B859C850E946A0D882332
S11316902CF481E090E09E878D873FC020E03FEFEF
S11316A04FE757E469857A858B859C850E94EB0D0D
S11316B018164CF520E030E040E251E46D817E8163
S11316C08F8198850E94F00DDC01CB01BC01CD0116
S11316D00E946F0DDC01CB019E878D870FC089E1CD
S11316E090E0988B8F878F8598890197F1F7988B75
S11316F08F878D859E8501979E878D878D859E8595
S1131700892B69F714C069857A858B859C850E942D
S11317106F0DDC01CB019E878D878D859E859A8B0D
S1131720898B89899A890197F1F79A8B898B88E249
S113173090E028E230E0F90120812062FC0120835E
S113174088E290E028E230E0F90120812F7EFC015C
S1131750208381E20E94410A83E10E94410A86E0DB
S11317600E94410A82EC0E94410A80E20E94410ADE
S113177089E00E94410A80E80E94410A80E40E94B4
S1131780410A00E010E005C080E00E94500A0F5FAB
S11317901F4F083FF1E01F07B8F388E00E94410A99
S11317A08CE00E94410A00006C960FB6F894DEBFEC
S11317B00FBECDBFDF91CF911F910F9108950F936D
S11317C01F93CF93DF93CDB7DEB780E80E94410A21
S11317D080E40E94410A109261031092620300E0C7
S11317E010E007C0C80187599E4FFC0110820F5FAB
S11317F01F4F083FF1E01F07A8F30000DF91CF91CE
S11318001F910F910895CF93DF9300D000D01F92C2
S1131810CDB7DEB78B836C834D838C81869586959B
S11318208695882F90E044E5489F9001499F300DAC
S113183011248B81882F90E0820F931F87599E4F2C
S11318409A8389838D818823C9F089819A81FC01D7
S11318508081482F8C81882F90E09C01277033274A
S113186081E090E002C0880F991F2A95E2F7842B4B
S1131870282F89819A81FC01208319C089819A814A
S1131880FC018081482F8C81882F90E09C01277077
S1131890332781E090E002C0880F991F2A95E2F770
S11318A080958423282F89819A81FC01208300005C
S11318B00F900F900F900F900F90DF91CF9108959C
S11318C00F931F93CF93DF9300D000D01F92CDB717
S11318D0DEB78C836D8310E065C000E04EC08C8160
S11318E0882F90E09C01205231099D81812F692F1E
S11318F00E94850E482F50E0C901880F991F880F58
S1131900991F820F931F840F951F88599F4F9A83A5
S1131910898389819A81FC0184918B838B81282F0F
S113192030E09D81802F692F0E94850E882F90E0E2
S1131930A90102C0559547958A95E2F7CA018170BD
S11319409927892B61F080916203982F900F8091E1
S11319506103810F41E0692F0E94030C0BC0809149
S11319606203982F900F80916103810F40E0692FEB
S11319700E94030C802F01E0080F402F50E08D815E
S1131980282F30E0C901880F991F880F991F880FED
S1131990991F821B930B481759070CF4A0CF812F72
S11319A011E0180F412F50E08D81282F30E0C9013C
S11319B0880F991F880F991F820F931F4817590783
S11319C00CF48BCF209161039D81892F880F880FA0
S11319D0890F820F8F5F8093610380916103843547
S11319E070F010926103209162039D81892F880F0A
S11319F0880F880F891B820F8F5F80936203809109
S1131A006203803320F0109261031092620300009D
S1131A100F900F900F900F900F90DF91CF911F9127
S1131A200F910895CF93DF9300D01F92CDB7DEB707
S1131A309A8389836B830CC089819A819C012F5F6F
S1131A403F4F3A832983FC0180816B810E94600CA3
S1131A5089819A81FC018081882371F700000F90AD
S1131A600F900F90DF91CF910895CF93DF9300D023
S1131A70CDB7DEB789836A838981809361038A81C4
S1131A808093620300000F900F90DF91CF9108952F
S1131A900F931F93CF93DF93CDB7DEB780E80E94F7
S1131AA0410A80E40E94410A00E010E009C0C80134
S1131AB087599E4FFC0180810E94500A0F5F1F4F7F
S1131AC0083FF1E01F0798F30000DF91CF911F91C9
S1131AD00F9108950E949E0D08F481E008950E94DC
S1131AE0CA0D88F09F5798F0B92F9927B751B0F0D5
S1131AF0E1F0660F771F881F991F1AF0BA95C9F78E
S1131B0014C0B13091F00E94E40DB1E008950C943A
S1131B10E40D672F782F8827B85F39F0B93FCCF3ED
S1131B20869577956795B395D9F73EF4909580950A
S1131B30709561957F4F8F4F9F4F0895990F0008BF
S1131B40550FAA0BE0E8FEEF16161706E807F9078B
S1131B50C0F012161306E407F50798F0621B730B26
S1131B60840B950B39F40A2661F0232B242B252BA7
S1131B7021F408950A2609F4A140A6958FEF811D4A
S1131B80811D089557FD9058440F551F59F05F3F2C
S1131B9071F04795880F97FB991F61F09F3F79F08B
S1131BA087950895121613061406551FF2CF46950D
S1131BB0F1DF08C0161617061806991FF1CF86958F
S1131BC07105610508940895E894BB276627772773
S1131BD0CB0197F908950E949E0D08F48FEF0895A4
S1131BE00E94030E0C94740E0E94660E38F00E943C
S1131BF06D0E20F0952311F00C945D0E0C94630E81
S1131C0011240C94E50D0E94C20D70F3959FC1F34D
S1131C10950F50E0551F629FF001729FBB27F00D96
S1131C20B11D639FAA27F00DB11DAA1F649F6627EB
S1131C30B00DA11D661F829F2227B00DA11D621F3A
S1131C40739FB00DA11D621F839FA00D611D221FF4
S1131C50749F3327A00D611D231F849F600D211DD8
S1131C60822F762F6A2F11249F5750409AF0F1F05B
S1131C7088234AF0EE0FFF1FBB1F661F771F881FC4
S1131C8091505040A9F79E3F510580F00C945D0E91
S1131C900C94E50D5F3FE4F3983ED4F38695779575
S1131CA06795B795F795E7959F5FC1F7FE2B880F6A
S1131CB0911D9695879597F9089597F99F6780E800
S1131CC070E060E008959FEF80EC089500240A948A
S1131CD01616170618060906089500240A94121603
S1131CE01306140605060895092E0394000C11F436
S1131CF0882352F0BB0F40F4BF2B11F460FF04C0E3
S1131D006F5F7F4F8F4F9F4F0895991B79E004C0F9
S1131D10991F961708F0961B881F7A95C9F7809526
S1131D200895052E97FB1EF400940E94A80E57FDFB
S1131D3007D00E94BF0E07FC03D04EF40C94A80EEB
S1131D4050954095309521953F4F4F4F5F4F0895E3
S1131D5090958095709561957F4F8F4F9F4F089513
S1131D60A29FB001B39FC001A39F700D811D1124D8
S1131D70911DB29F700D811D1124911D0895A1E242
S1131D801A2EAA1BBB1BFD010DC0AA1FBB1FEE1FF1
S1131D90FF1FA217B307E407F50720F0A21BB30B3C
S1131DA0E40BF50B661F771F881F991F1A9469F7B8
S1131DB060957095809590959B01AC01BD01CF0114
S1131DC00895AEE0B0E0E7EEFEE00C94A2110D89B8
S1131DD01E8986E08C831A8309838FEF9FE79E8395
S1131DE08D83AE01475E5F4F6F89788DCE0101967A
S1131DF00E94030FEF81F885E00FF11F10822E96E9
S1131E00E4E00C94BE11ABE0B0E0E9E0FFE00C9438
S1131E1094116C017B018A01FC0117821682838173
S1131E2081FFCCC1CE0101963C01F6019381F701FB
S1131E3093FD859193FF81917F01882309F4BAC1B1
S1131E40853239F493FD859193FF81917F01853229
S1131E5029F4B60190E00E94FA10E7CF912C212CCE
S1131E60312CFFE1F315D8F08B3279F038F480325D
S1131E7079F08332A1F4232D20611DC08D3261F0ED
S1131E80803369F4232D216016C0832D8260382E9F
S1131E90E32DE4603E2E2AC0F32DF8601DC037FC0C
S1131EA02DC020ED280F2A3040F08E32B9F436FCD4
S1131EB081C1232D2064322E19C036FE06C08AE06B
S1131EC0989E200D1124922E11C0EAE02E9E200D22
S1131ED01124222EF32DF0623F2E08C08C3621F4FB
S1131EE0832D8068382E02C0883641F4F70193FDB3
S1131EF0859193FF81917F018111B3CF982F9F7DAD
S1131F009554933028F40C5F1F4F9FE399830DC0C1
S1131F10833631F0833771F0833509F059C021C01D
S1131F20F801808189830E5F1F4F88248394912C4C
S1131F30530113C02801F2E04F0E511CF801A08098
S1131F40B18036FE03C0692D70E002C06FEF7FEFF1
S1131F50C5010E94EF104C018201F32DFF773F2E43
S1131F6016C0280122E0420E511CF801A080B18065
S1131F7036FE03C0692D70E002C06FEF7FEFC5012C
S1131F800E94E4104C01F32DF0683F2E820133FCD3
S1131F901BC0822D90E088169906B0F4B60180E249
S1131FA090E00E94FA102A94F4CFF50137FC859151
S1131FB037FE81915F01B60190E00E94FA10211072
S1131FC02A9421E0821A91088114910471F7E8C0DF
S1131FD0843611F0893641F5F80137FE07C0608177
S1131FE07181828193810C5F1F4F08C06081718170
S1131FF0072E000C880B990B0E5F1F4FF32DFF76F5
S11320003F2E97FF09C090958095709561957F4FFD
S11320108F4F9F4FF0683F2E2AE030E0A3010E94CB
S11320203611882E861845C0853731F4232D2F7E2E
S1132030B22E2AE030E025C0932D997FB92E8F3639
S1132040C1F018F4883579F0B5C0803719F08837B5
S113205021F0B0C0E92FE061BE2EB4FE0DC0FB2D0F
S1132060F460BF2E09C034FE0AC0292F2660B22EA8
S113207006C028E030E005C020E130E002C020E1E5
S113208032E0F801B7FE07C06081718182819381DB
S11320900C5F1F4F06C06081718180E090E00E5F8D
S11320A01F4FA3010E943611882E8618FB2DFF773F
S11320B03F2E36FE0DC0232D2E7FA22E891458F4F8
S11320C034FE0BC032FC09C0832D8E7EA82E05C0C1
S11320D0B82CA32C03C0B82C01C0B92CA4FE0FC08B
S11320E0FE01E80DF11D8081803321F49A2D997E43
S11320F0A92E09C0A2FE06C0B394B39404C08A2DCD
S1132100867809F0B394A3FC11C0A0FE06C0B214F3
S113211088F4280C922C9B180EC0B21460F4B601FB
S113212080E290E00E94FA10B394F7CFB21418F44E
S11321302B1802C0982C212CA4FE10C0B60180E3F9
S113214090E00E94FA10A2FE17C0A1FC03C088E729
S113215090E002C088E590E0B6010CC08A2D867834
S113216059F0A1FE02C08BE201C080E2A7FC8DE21F
S1132170B60190E00E94FA10891438F4B60180E3A5
S113218090E00E94FA109A94F7CF8A94F301E80D34
S1132190F11D8081B60190E00E94FA108110F5CF04
S11321A0222009F442CEB60180E290E00E94FA10A7
S11321B02A94F6CFF6018681978102C08FEF9FEFB4
S11321C02B96E2E10C94B011FC0105906150704033
S11321D00110D8F7809590958E0F9F1F0895FC01EC
S11321E06150704001900110D8F7809590958E0F42
S11321F09F1F08950F931F93CF93DF93FB012381B8
S113220021FD03C08FEF9FEF2CC022FF16C0468133
S11322105781248135814217530744F4A081B18149
S11322209D012F5F3F4F318320838C93268137811B
S11322302F5F3F4F3783268314C08B01EC01FB01D2
S11322400084F185E02D0995892BE1F6D8011696D5
S11322508D919C911797019617969C938E93169740
S1132260CE01DF91CF911F910F910895FA01AA2712
S1132270283051F1203181F1E8946F936E7F6E5FC5
S11322807F4F8F4F9F4FAF4FB1E03ED0B4E03CD073
S1132290670F781F891F9A1FA11D680F791F8A1F56
S11322A0911DA11D6A0F711D811D911DA11D20D0BD
S11322B009F468943F912AE0269F11243019305D77
S11322C03193DEF6CF010895462F4770405D419368
S11322D0B3E00FD0C9F7F6CF462F4F70405D4A33B5
S11322E018F0495D31FD4052419302D0A9F7EACF7D
S11322F0B4E0A6959795879577956795BA95C9F7AC
S113230000976105710508959B01AC010A2E06949E
S11323105795479537952795BA95C9F7620F731F57
S1132320841F951FA01D08952F923F924F925F9294
S11323306F927F928F929F92AF92BF92CF92DF92D1
S1132340EF92FF920F931F93CF93DF93CDB7DEB736
S1132350CA1BDB0B0FB6F894DEBF0FBECDBF0994CA
S11323602A88398848885F846E847D848C849B8421
S1132370AA84B984C884DF80EE80FD800C811B812F
S1132380AA81B981CE0FD11D0FB6F894DEBF0FBE5E
S10D2390CDBFED010895F894FFCFCE
S113239A010101013C0020004D6F646F00542E209E
S11323AA566400542E20566D00542E20416D007C34
S11323BA006C757800632F6D696E000000010002DD
S11323CA0003000400150016001700180025750004
S11123DA4D0041002020200020202020000083
S9030000FC
